{
  "contractName": "insurance",
  "abi": [
    {
      "anonymous": false,
      "inputs": [
        {
          "indexed": true,
          "internalType": "address",
          "name": "owner",
          "type": "address"
        },
        {
          "indexed": true,
          "internalType": "address",
          "name": "approved",
          "type": "address"
        },
        {
          "indexed": true,
          "internalType": "uint256",
          "name": "tokenId",
          "type": "uint256"
        }
      ],
      "name": "Approval",
      "type": "event"
    },
    {
      "anonymous": false,
      "inputs": [
        {
          "indexed": true,
          "internalType": "address",
          "name": "from",
          "type": "address"
        },
        {
          "indexed": true,
          "internalType": "address",
          "name": "to",
          "type": "address"
        },
        {
          "indexed": true,
          "internalType": "uint256",
          "name": "tokenId",
          "type": "uint256"
        }
      ],
      "name": "Transfer",
      "type": "event"
    },
    {
      "inputs": [
        {
          "internalType": "address",
          "name": "",
          "type": "address"
        },
        {
          "internalType": "uint256",
          "name": "",
          "type": "uint256"
        }
      ],
      "name": "client",
      "outputs": [
        {
          "internalType": "bool",
          "name": "isValid",
          "type": "bool"
        },
        {
          "internalType": "uint256",
          "name": "time",
          "type": "uint256"
        }
      ],
      "stateMutability": "view",
      "type": "function",
      "constant": true
    },
    {
      "inputs": [
        {
          "internalType": "uint256",
          "name": "",
          "type": "uint256"
        }
      ],
      "name": "productIndex",
      "outputs": [
        {
          "internalType": "uint256",
          "name": "productId",
          "type": "uint256"
        },
        {
          "internalType": "string",
          "name": "productName",
          "type": "string"
        },
        {
          "internalType": "uint256",
          "name": "price",
          "type": "uint256"
        },
        {
          "internalType": "bool",
          "name": "offered",
          "type": "bool"
        }
      ],
      "stateMutability": "view",
      "type": "function",
      "constant": true
    },
    {
      "inputs": [
        {
          "internalType": "uint256",
          "name": "tokenId",
          "type": "uint256"
        }
      ],
      "name": "ownerOf",
      "outputs": [
        {
          "internalType": "address",
          "name": "",
          "type": "address"
        }
      ],
      "stateMutability": "view",
      "type": "function",
      "constant": true
    },
    {
      "inputs": [
        {
          "internalType": "uint256",
          "name": "_productId",
          "type": "uint256"
        },
        {
          "internalType": "string",
          "name": "_productName",
          "type": "string"
        },
        {
          "internalType": "uint256",
          "name": "_price",
          "type": "uint256"
        }
      ],
      "name": "addProduct",
      "outputs": [],
      "stateMutability": "nonpayable",
      "type": "function"
    },
    {
      "inputs": [
        {
          "internalType": "uint256",
          "name": "_productIndex",
          "type": "uint256"
        }
      ],
      "name": "doNotOffer",
      "outputs": [],
      "stateMutability": "nonpayable",
      "type": "function"
    },
    {
      "inputs": [
        {
          "internalType": "uint256",
          "name": "_productIndex",
          "type": "uint256"
        }
      ],
      "name": "forOffer",
      "outputs": [],
      "stateMutability": "nonpayable",
      "type": "function"
    },
    {
      "inputs": [
        {
          "internalType": "uint256",
          "name": "_productIndex",
          "type": "uint256"
        },
        {
          "internalType": "uint256",
          "name": "_price",
          "type": "uint256"
        }
      ],
      "name": "changePrice",
      "outputs": [],
      "stateMutability": "nonpayable",
      "type": "function"
    },
    {
      "inputs": [
        {
          "internalType": "uint256",
          "name": "_productIndex",
          "type": "uint256"
        }
      ],
      "name": "buyInsurance",
      "outputs": [],
      "stateMutability": "payable",
      "type": "function",
      "payable": true
    }
  ],
  "bytecode": "0x60806040524260055534801561001457600080fd5b50611014806100246000396000f3fe60806040526004361061007b5760003560e01c8063a86a658c1161004e578063a86a658c146102c7578063a92e118f146102f5578063af94549514610330578063b3de019c146103a85761007b565b8063322d5a33146100805780634268ff2d1461014b5780636352211e1461022757806396e2b6b91461028c575b600080fd5b34801561008c57600080fd5b506100b9600480360360208110156100a357600080fd5b81019080803590602001909291905050506103ed565b60405180858152602001806020018481526020018315158152602001828103825285818151815260200191508051906020019080838360005b8381101561010d5780820151818401526020810190506100f2565b50505050905090810190601f16801561013a5780820380516001836020036101000a031916815260200191505b509550505050505060405180910390f35b34801561015757600080fd5b506102256004803603606081101561016e57600080fd5b81019080803590602001909291908035906020019064010000000081111561019557600080fd5b8201836020820111156101a757600080fd5b803590602001918460018302840111640100000000831117156101c957600080fd5b91908080601f016020809104026020016040519081016040528093929190818152602001838380828437600081840152601f19601f820116905080830192505050505050509192919290803590602001909291905050506104c2565b005b34801561023357600080fd5b506102606004803603602081101561024a57600080fd5b8101908080359060200190929190505050610578565b604051808273ffffffffffffffffffffffffffffffffffffffff16815260200191505060405180910390f35b34801561029857600080fd5b506102c5600480360360208110156102af57600080fd5b810190808035906020019092919050505061063f565b005b6102f3600480360360208110156102dd57600080fd5b81019080803590602001909291905050506106b3565b005b34801561030157600080fd5b5061032e6004803603602081101561031857600080fd5b8101908080359060200190929190505050610827565b005b34801561033c57600080fd5b506103896004803603604081101561035357600080fd5b81019080803573ffffffffffffffffffffffffffffffffffffffff16906020019092919080359060200190929190505050610859565b6040518083151581526020018281526020019250505060405180910390f35b3480156103b457600080fd5b506103eb600480360360408110156103cb57600080fd5b810190808035906020019092919080359060200190929190505050610897565b005b6003602052806000526040600020600091509050806000015490806001018054600181600116156101000203166002900480601f01602080910402602001604051908101604052809291908181526020018280546001816001161561010002031660029004801561049f5780601f106104745761010080835404028352916020019161049f565b820191906000526020600020905b81548152906001019060200180831161048257829003601f168201915b5050505050908060020154908060030160009054906101000a900460ff16905084565b6006600081548092919060010191905055506000339050604051806080016040528085815260200184815260200183815260200160011515815250600360006006548152602001908152602001600020600082015181600001556020820151816001019080519060200190610538929190610ebd565b506040820151816002015560608201518160030160006101000a81548160ff021916908315150217905550905050610572816006546108f8565b50505050565b60008060008084815260200190815260200160002060009054906101000a900473ffffffffffffffffffffffffffffffffffffffff169050600073ffffffffffffffffffffffffffffffffffffffff168173ffffffffffffffffffffffffffffffffffffffff161415610636576040517f08c379a0000000000000000000000000000000000000000000000000000000008152600401808060200182810382526029815260200180610f8d6029913960400191505060405180910390fd5b80915050919050565b8061064981610578565b73ffffffffffffffffffffffffffffffffffffffff163373ffffffffffffffffffffffffffffffffffffffff161461068057600080fd5b60016003600084815260200190815260200160002060030160006101000a81548160ff0219169083151502179055505050565b610384600554014211156106c657600080fd5b600115156003600083815260200190815260200160002060030160009054906101000a900460ff16151514610763576040517f08c379a00000000000000000000000000000000000000000000000000000000081526004018080602001828103825260168152602001807f54686973206974656d20697320736f6c64206f7574210000000000000000000081525060200191505060405180910390fd5b60036000828152602001908152602001600020600201543411156107ef576040517f08c379a000000000000000000000000000000000000000000000000000000000815260040180806020018281038252601d8152602001807f596f7520646f6e2774206861766520656e6f75676820746f6b656e732100000081525060200191505060405180910390fd5b6040518060400160405280600115158152602001428152505061081b61081482610578565b3383610b21565b61082481610827565b50565b60006003600083815260200190815260200160002060030160006101000a81548160ff02191690831515021790555050565b6004602052816000526040600020602052806000526040600020600091509150508060000160009054906101000a900460ff16908060010154905082565b816108a181610578565b73ffffffffffffffffffffffffffffffffffffffff163373ffffffffffffffffffffffffffffffffffffffff16146108d857600080fd5b816003600085815260200190815260200160002060020181905550505050565b600073ffffffffffffffffffffffffffffffffffffffff168273ffffffffffffffffffffffffffffffffffffffff16141561099b576040517f08c379a00000000000000000000000000000000000000000000000000000000081526004018080602001828103825260208152602001807f4552433732313a206d696e7420746f20746865207a65726f206164647265737381525060200191505060405180910390fd5b6109a481610d94565b15610a17576040517f08c379a000000000000000000000000000000000000000000000000000000000815260040180806020018281038252601c8152602001807f4552433732313a20746f6b656e20616c7265616479206d696e7465640000000081525060200191505060405180910390fd5b610a2360008383610dff565b60018060008473ffffffffffffffffffffffffffffffffffffffff1673ffffffffffffffffffffffffffffffffffffffff168152602001908152602001600020600082825401925050819055508160008083815260200190815260200160002060006101000a81548173ffffffffffffffffffffffffffffffffffffffff021916908373ffffffffffffffffffffffffffffffffffffffff160217905550808273ffffffffffffffffffffffffffffffffffffffff16600073ffffffffffffffffffffffffffffffffffffffff167fddf252ad1be2c89b69c2b068fc378daa952ba7f163c4a11628f55a4df523b3ef60405160405180910390a45050565b8273ffffffffffffffffffffffffffffffffffffffff16610b4182610578565b73ffffffffffffffffffffffffffffffffffffffff1614610bad576040517f08c379a0000000000000000000000000000000000000000000000000000000008152600401808060200182810382526029815260200180610fb66029913960400191505060405180910390fd5b600073ffffffffffffffffffffffffffffffffffffffff168273ffffffffffffffffffffffffffffffffffffffff161415610c33576040517f08c379a0000000000000000000000000000000000000000000000000000000008152600401808060200182810382526024815260200180610f696024913960400191505060405180910390fd5b610c3e838383610dff565b610c49600082610e04565b60018060008573ffffffffffffffffffffffffffffffffffffffff1673ffffffffffffffffffffffffffffffffffffffff1681526020019081526020016000206000828254039250508190555060018060008473ffffffffffffffffffffffffffffffffffffffff1673ffffffffffffffffffffffffffffffffffffffff168152602001908152602001600020600082825401925050819055508160008083815260200190815260200160002060006101000a81548173ffffffffffffffffffffffffffffffffffffffff021916908373ffffffffffffffffffffffffffffffffffffffff160217905550808273ffffffffffffffffffffffffffffffffffffffff168473ffffffffffffffffffffffffffffffffffffffff167fddf252ad1be2c89b69c2b068fc378daa952ba7f163c4a11628f55a4df523b3ef60405160405180910390a4505050565b60008073ffffffffffffffffffffffffffffffffffffffff1660008084815260200190815260200160002060009054906101000a900473ffffffffffffffffffffffffffffffffffffffff1673ffffffffffffffffffffffffffffffffffffffff1614159050919050565b505050565b816002600083815260200190815260200160002060006101000a81548173ffffffffffffffffffffffffffffffffffffffff021916908373ffffffffffffffffffffffffffffffffffffffff160217905550808273ffffffffffffffffffffffffffffffffffffffff16610e7783610578565b73ffffffffffffffffffffffffffffffffffffffff167f8c5be1e5ebec7d5bd14f71427d1e84f3dd0314c0f7b2291e5b200ac8c7c3b92560405160405180910390a45050565b828054600181600116156101000203166002900490600052602060002090601f016020900481019282610ef35760008555610f3a565b82601f10610f0c57805160ff1916838001178555610f3a565b82800160010185558215610f3a579182015b82811115610f39578251825591602001919060010190610f1e565b5b509050610f479190610f4b565b5090565b5b80821115610f64576000816000905550600101610f4c565b509056fe4552433732313a207472616e7366657220746f20746865207a65726f20616464726573734552433732313a206f776e657220717565727920666f72206e6f6e6578697374656e7420746f6b656e4552433732313a207472616e73666572206f6620746f6b656e2074686174206973206e6f74206f776ea264697066735822122051a6892e784852fcc3b1f9b2618ba2d81e49570c1ec7a5f3ed20bc836327d59564736f6c63430007060033",
  "immutableReferences": {},
  "source": "\r\n//SPDX-License-Identifier: MIT\r\npragma solidity ^0.7.0;\r\n\r\n/**\r\n * @title Tech Insurance tor\r\n * @dev \r\n * Step1: Complete the functions in the insurance smart contract\r\n * Step2:Add any required methods that are needed to check if the function are called correctly, \r\n * and also add a modifier function that allows only the owner can run the changePrice function.\r\n * Step3: Add any error handling that may occur in any function\r\n * Step4: Add a modifer function to check the time if the client insurance is valid.\r\n * Step5 (opcional): Add a refund function that refunds money back to the client after one week. Guaranteed Money Back Plan.  \r\n * Step6: implement ERC 721 Token to this contract and change what it needs to be changed. \r\n * \r\n */\r\n \r\n//import \"https://github.com/OpenZeppelin/openzeppelin-contracts/blob/master/contracts/token/ERC721/ERC721.sol\";\r\n//import \"github/OpenZeppelin/openzeppelin-contracts/contracts/token/ERC721/ERC721.sol\";\r\ncontract insurance {\r\n    \r\n\r\n    event Transfer(address indexed from, address indexed to, uint256 indexed tokenId);\r\n\r\n    /**\r\n     * @dev Emitted when `owner` enables `approved` to manage the `tokenId` token.\r\n     */\r\n    event Approval(address indexed owner, address indexed approved, uint256 indexed tokenId);\r\n\r\n    // Mapping from token ID to owner address\r\n    mapping (uint256 => address) private _owners;\r\n\r\n    // Mapping owner address to token count\r\n    mapping (address => uint256) private _balances;\r\n    // Mapping from token ID to approved address\r\n    mapping (uint256 => address) private _tokenApprovals;\r\n\r\n    function _beforeTokenTransfer(address from, address to, uint256 tokenId) internal virtual { }\r\n\r\n    function _approve(address to, uint256 tokenId) internal virtual {\r\n        _tokenApprovals[tokenId] = to;\r\n        emit Approval(ownerOf(tokenId), to, tokenId);\r\n    }\r\n    \r\n        function ownerOf(uint256 tokenId) public view virtual  returns (address) {\r\n        address owner = _owners[tokenId];\r\n        require(owner != address(0), \"ERC721: owner query for nonexistent token\");\r\n        return owner;\r\n    }\r\n    \r\n    function _transfer(address from, address to, uint256 tokenId) internal virtual {\r\n        require(ownerOf(tokenId) == from, \"ERC721: transfer of token that is not own\");\r\n        require(to != address(0), \"ERC721: transfer to the zero address\");\r\n\r\n        _beforeTokenTransfer(from, to, tokenId);\r\n\r\n        // Clear approvals from the previous owner\r\n        _approve(address(0), tokenId);\r\n\r\n        _balances[from] -= 1;\r\n        _balances[to] += 1;\r\n        _owners[tokenId] = to;\r\n\r\n        emit Transfer(from, to, tokenId);\r\n    }\r\n    \r\n        function _mint(address to, uint256 tokenId) internal virtual {\r\n        require(to != address(0), \"ERC721: mint to the zero address\");\r\n        require(!_exists(tokenId), \"ERC721: token already minted\");\r\n\r\n        _beforeTokenTransfer(address(0), to, tokenId);\r\n\r\n        _balances[to] += 1;\r\n        _owners[tokenId] = to;\r\n\r\n        emit Transfer(address(0), to, tokenId);\r\n    }\r\n    \r\n        function _exists(uint256 tokenId) internal view virtual returns (bool) {\r\n        return _owners[tokenId] != address(0);\r\n    }\r\n    \r\n    struct Product {\r\n        uint productId;\r\n        string productName;\r\n        uint price;\r\n        bool offered;\r\n    }\r\n     \r\n    struct Client {\r\n        bool isValid;\r\n        uint time;\r\n    }\r\n    \r\n     modifier OnlyinsOwner(uint _prodID) {\r\n         require(msg.sender == ownerOf(_prodID));\r\n         _;\r\n    }\r\n         modifier TimeCheck {\r\n         require(block.timestamp <= timeLocked + 15 minutes );\r\n         _;\r\n     }\r\n    \r\n    mapping(uint => Product) public productIndex;\r\n    mapping(address => mapping(uint => Client)) public client;\r\n    uint256 timeLocked = block.timestamp;\r\n    uint productCounter;\r\n    \r\n     address payable insOwner;\r\n    // constructor(address payable _insOwner) public{\r\n    //     insOwner = _insOwner;\r\n    // }\r\n \r\n    function addProduct(uint _productId, string memory _productName, uint _price ) public  {\r\n        \r\n       productCounter++;\r\n       address  prodOwner = msg.sender;\r\n       productIndex[productCounter]= Product(_productId, _productName, _price, true);\r\n       _mint(prodOwner, productCounter);\r\n    }\r\n    \r\n    \r\n    function doNotOffer(uint _productIndex) public {\r\n\r\n        productIndex[_productIndex].offered = false;\r\n    }\r\n    \r\n    function forOffer(uint _productIndex) public OnlyinsOwner(_productIndex) {\r\n        \r\n        productIndex[_productIndex].offered = true;\r\n    }\r\n    \r\n    function changePrice(uint _productIndex, uint _price) public OnlyinsOwner(_productIndex) {\r\n\r\n        productIndex[_productIndex].price = _price;\r\n        \r\n    }\r\n    \r\n    /**\r\n    * @dev \r\n    * Every client buys an insurance, \r\n    * you need to map the client's address to the id of product to struct client, using (client map)\r\n    */\r\n    \r\n    function buyInsurance(uint _productIndex) public payable TimeCheck {\r\n        require(productIndex[_productIndex].offered == true, \"This item is sold out!\");\r\n        require(msg.value <= productIndex[_productIndex].price, \"You don't have enough tokens!\");       \r\n        Client(true, block.timestamp);\r\n        _transfer(ownerOf(_productIndex), msg.sender,_productIndex);   \r\n        doNotOffer(_productIndex);   \r\n    } \r\n    \r\n}\r\n\r\n",
  "sourcePath": "C:/Users/un/Desktop/truffle/contracts/insurance.sol",
  "compiler": {
    "name": "solc",
    "version": "0.7.6+commit.7338295f.Emscripten.clang"
  },
  "schemaVersion": "3.3.4",
  "updatedAt": "2021-03-09T23:36:42.944Z",
  "networkType": "ethereum",
  "devdoc": {
    "details": " Step1: Complete the functions in the insurance smart contract Step2:Add any required methods that are needed to check if the function are called correctly,  and also add a modifier function that allows only the owner can run the changePrice function. Step3: Add any error handling that may occur in any function Step4: Add a modifer function to check the time if the client insurance is valid. Step5 (opcional): Add a refund function that refunds money back to the client after one week. Guaranteed Money Back Plan.   Step6: implement ERC 721 Token to this contract and change what it needs to be changed.  ",
    "events": {
      "Approval(address,address,uint256)": {
        "details": "Emitted when `owner` enables `approved` to manage the `tokenId` token."
      }
    },
    "kind": "dev",
    "methods": {
      "buyInsurance(uint256)": {
        "details": " Every client buys an insurance,  you need to map the client's address to the id of product to struct client, using (client map)"
      }
    },
    "title": "Tech Insurance tor",
    "version": 1
  },
  "userdoc": {
    "kind": "user",
    "methods": {},
    "version": 1
  }
}